{
  "contractName": "ToDoList",
  "abi": [
    {
      "constant": true,
      "inputs": [],
      "name": "itemCounter",
      "outputs": [
        {
          "name": "",
          "type": "uint256"
        }
      ],
      "payable": false,
      "stateMutability": "view",
      "type": "function"
    },
    {
      "constant": true,
      "inputs": [],
      "name": "owner",
      "outputs": [
        {
          "name": "",
          "type": "address"
        }
      ],
      "payable": false,
      "stateMutability": "view",
      "type": "function"
    },
    {
      "constant": true,
      "inputs": [
        {
          "name": "",
          "type": "uint256"
        }
      ],
      "name": "items",
      "outputs": [
        {
          "name": "id",
          "type": "uint256"
        },
        {
          "name": "ItemName",
          "type": "bytes8"
        },
        {
          "name": "ItemDetails",
          "type": "bytes32"
        },
        {
          "name": "iscomplete",
          "type": "bool"
        }
      ],
      "payable": false,
      "stateMutability": "view",
      "type": "function"
    },
    {
      "inputs": [],
      "payable": false,
      "stateMutability": "nonpayable",
      "type": "constructor"
    },
    {
      "anonymous": false,
      "inputs": [
        {
          "indexed": false,
          "name": "id",
          "type": "uint256"
        },
        {
          "indexed": false,
          "name": "itemName",
          "type": "bytes8"
        },
        {
          "indexed": false,
          "name": "itemDetails",
          "type": "bytes32"
        }
      ],
      "name": "ItemCreated",
      "type": "event"
    },
    {
      "anonymous": false,
      "inputs": [
        {
          "indexed": false,
          "name": "id",
          "type": "uint256"
        },
        {
          "indexed": false,
          "name": "itemName",
          "type": "bytes8"
        },
        {
          "indexed": false,
          "name": "itemDetails",
          "type": "bytes32"
        }
      ],
      "name": "ItemCompleted",
      "type": "event"
    },
    {
      "constant": false,
      "inputs": [
        {
          "name": "_itemName",
          "type": "bytes8"
        },
        {
          "name": "_itemDetails",
          "type": "bytes32"
        }
      ],
      "name": "createItem",
      "outputs": [],
      "payable": false,
      "stateMutability": "nonpayable",
      "type": "function"
    },
    {
      "constant": false,
      "inputs": [
        {
          "name": "_id",
          "type": "uint256"
        }
      ],
      "name": "markComplete",
      "outputs": [],
      "payable": false,
      "stateMutability": "nonpayable",
      "type": "function"
    }
  ],
  "bytecode": "0x608060405234801561001057600080fd5b50336000806101000a81548173ffffffffffffffffffffffffffffffffffffffff021916908373ffffffffffffffffffffffffffffffffffffffff16021790555060006001819055506105cb806100686000396000f3fe608060405234801561001057600080fd5b50600436106100575760003560e01c806341fbab261461005c57806367067ed6146100af5780636d6d00ed146100dd5780638da5cb5b146100fb578063bfb231d214610145575b600080fd5b6100ad6004803603604081101561007257600080fd5b81019080803577ffffffffffffffffffffffffffffffffffffffffffffffff19169060200190929190803590602001909291905050506101d6565b005b6100db600480360360208110156100c557600080fd5b8101908080359060200190929190505050610320565b005b6100e56104e2565b6040518082815260200191505060405180910390f35b6101036104e8565b604051808273ffffffffffffffffffffffffffffffffffffffff1673ffffffffffffffffffffffffffffffffffffffff16815260200191505060405180910390f35b6101716004803603602081101561015b57600080fd5b810190808035906020019092919050505061050d565b604051808581526020018477ffffffffffffffffffffffffffffffffffffffffffffffff191677ffffffffffffffffffffffffffffffffffffffffffffffff191681526020018381526020018215151515815260200194505050505060405180910390f35b604051806080016040528060015481526020018377ffffffffffffffffffffffffffffffffffffffffffffffff19168152602001828152602001600015158152506002600060015481526020019081526020016000206000820151816000015560208201518160010160006101000a81548167ffffffffffffffff021916908360c01c02179055506040820151816002015560608201518160030160006101000a81548160ff0219169083151502179055509050507f17c60e2431248af04756ef55b91f34c9f11f93a870d3b506e84992218618fc5d6001548383604051808481526020018377ffffffffffffffffffffffffffffffffffffffffffffffff191677ffffffffffffffffffffffffffffffffffffffffffffffff19168152602001828152602001935050505060405180910390a16001600081548092919060010191905055505050565b610328610557565b60026000838152602001908152602001600020604051806080016040529081600082015481526020016001820160009054906101000a900460c01b77ffffffffffffffffffffffffffffffffffffffffffffffff191677ffffffffffffffffffffffffffffffffffffffffffffffff19168152602001600282015481526020016003820160009054906101000a900460ff16151515158152505090508060600151156103d457506104df565b600181606001901515908115158152505080600260008481526020019081526020016000206000820151816000015560208201518160010160006101000a81548167ffffffffffffffff021916908360c01c02179055506040820151816002015560608201518160030160006101000a81548160ff0219169083151502179055509050507f5ec4b75451a5e5f5f04fd135a96ad4fd932304dfde7c9f64cf54ad4a20e11a378282602001518360400151604051808481526020018377ffffffffffffffffffffffffffffffffffffffffffffffff191677ffffffffffffffffffffffffffffffffffffffffffffffff19168152602001828152602001935050505060405180910390a1505b50565b60015481565b6000809054906101000a900473ffffffffffffffffffffffffffffffffffffffff1681565b60026020528060005260406000206000915090508060000154908060010160009054906101000a900460c01b908060020154908060030160009054906101000a900460ff16905084565b604051806080016040528060008152602001600077ffffffffffffffffffffffffffffffffffffffffffffffff1916815260200160008019168152602001600015158152509056fea165627a7a72305820b260a36151328764ae0eaa93bfeb520100dfc7628634f35345fb098d27679e780029",
  "source": "pragma solidity ^0.5.0;\n\ncontract ToDoList {\n    address public owner;\n    uint public itemCounter;\n\n    struct Item {\n        uint id;\n        bytes8 ItemName;\n        bytes32 ItemDetails;\n        bool iscomplete;\n    }\n\n    mapping(uint => Item) public items;\n\n    event ItemCreated(\n        uint id,\n        bytes8 itemName,\n        bytes32 itemDetails\n        );\n\n    event ItemCompleted(\n        uint id,\n        bytes8 itemName,\n        bytes32 itemDetails\n        );\n\n    constructor() public {\n        owner = msg.sender;\n        itemCounter = 0;\n    }\n\n    modifier restricted() {\n    if (msg.sender == owner) _;\n  }\n\n    function createItem (bytes8 _itemName, bytes32 _itemDetails) public {\n\n        items[itemCounter] = Item(itemCounter, _itemName, _itemDetails, false);\n        emit ItemCreated(itemCounter, _itemName, _itemDetails);\n        itemCounter++;\n    }\n\n    function markComplete(uint _id) public {\n        Item memory _item = items[_id];\n        if(_item.iscomplete){\n            return;\n        } else {\n            _item.iscomplete = true;\n            items[_id] = _item;\n            emit ItemCompleted(_id, _item.ItemName, _item.ItemDetails);\n        }\n    }\n}",
  "sourcePath": "/home/dappros5/eth-challenge/contracts/ToDoList.sol",
  "compiler": {
    "name": "solc",
    "version": "0.5.8+commit.23d335f2.Emscripten.clang"
  },
  "schemaVersion": "3.0.11",
  "updatedAt": "2019-11-30T17:07:59.319Z",
  "devdoc": {
    "methods": {}
  },
  "userdoc": {
    "methods": {}
  }
}